{
  "contractName": "Identity",
  "abi": [
    {
      "inputs": [],
      "payable": false,
      "stateMutability": "nonpayable",
      "type": "constructor"
    },
    {
      "anonymous": false,
      "inputs": [
        {
          "indexed": false,
          "internalType": "uint256",
          "name": "id",
          "type": "uint256"
        }
      ],
      "name": "clientUpdateEvent",
      "type": "event"
    },
    {
      "anonymous": false,
      "inputs": [
        {
          "indexed": false,
          "internalType": "uint256",
          "name": "id",
          "type": "uint256"
        }
      ],
      "name": "newClientRegistered",
      "type": "event"
    },
    {
      "anonymous": false,
      "inputs": [
        {
          "indexed": false,
          "internalType": "uint256",
          "name": "id",
          "type": "uint256"
        }
      ],
      "name": "newUserRegistered",
      "type": "event"
    },
    {
      "anonymous": false,
      "inputs": [
        {
          "indexed": false,
          "internalType": "uint256",
          "name": "id",
          "type": "uint256"
        }
      ],
      "name": "userUpdateEvent",
      "type": "event"
    },
    {
      "constant": true,
      "inputs": [
        {
          "internalType": "uint256",
          "name": "",
          "type": "uint256"
        }
      ],
      "name": "access",
      "outputs": [
        {
          "internalType": "string",
          "name": "access_token",
          "type": "string"
        },
        {
          "internalType": "string",
          "name": "scope",
          "type": "string"
        }
      ],
      "payable": false,
      "stateMutability": "view",
      "type": "function"
    },
    {
      "constant": true,
      "inputs": [
        {
          "internalType": "uint256",
          "name": "",
          "type": "uint256"
        }
      ],
      "name": "client",
      "outputs": [
        {
          "internalType": "string",
          "name": "name",
          "type": "string"
        },
        {
          "internalType": "string",
          "name": "client_id",
          "type": "string"
        },
        {
          "internalType": "string",
          "name": "client_secret",
          "type": "string"
        },
        {
          "internalType": "string",
          "name": "project_name",
          "type": "string"
        }
      ],
      "payable": false,
      "stateMutability": "view",
      "type": "function"
    },
    {
      "constant": true,
      "inputs": [
        {
          "internalType": "address",
          "name": "",
          "type": "address"
        }
      ],
      "name": "clientIds",
      "outputs": [
        {
          "internalType": "uint256",
          "name": "",
          "type": "uint256"
        }
      ],
      "payable": false,
      "stateMutability": "view",
      "type": "function"
    },
    {
      "constant": true,
      "inputs": [
        {
          "internalType": "address",
          "name": "",
          "type": "address"
        }
      ],
      "name": "personIds",
      "outputs": [
        {
          "internalType": "uint256",
          "name": "",
          "type": "uint256"
        }
      ],
      "payable": false,
      "stateMutability": "view",
      "type": "function"
    },
    {
      "constant": true,
      "inputs": [
        {
          "internalType": "uint256",
          "name": "",
          "type": "uint256"
        }
      ],
      "name": "persons",
      "outputs": [
        {
          "internalType": "string",
          "name": "name",
          "type": "string"
        },
        {
          "internalType": "string",
          "name": "date_of_birth",
          "type": "string"
        },
        {
          "internalType": "address",
          "name": "walletAddress",
          "type": "address"
        },
        {
          "internalType": "string",
          "name": "idhash",
          "type": "string"
        },
        {
          "internalType": "string",
          "name": "password",
          "type": "string"
        }
      ],
      "payable": false,
      "stateMutability": "view",
      "type": "function"
    },
    {
      "constant": false,
      "inputs": [
        {
          "internalType": "string",
          "name": "_clientid",
          "type": "string"
        },
        {
          "internalType": "string",
          "name": "_token",
          "type": "string"
        },
        {
          "internalType": "string",
          "name": "_scope",
          "type": "string"
        }
      ],
      "name": "addToken",
      "outputs": [
        {
          "internalType": "string",
          "name": "",
          "type": "string"
        }
      ],
      "payable": false,
      "stateMutability": "nonpayable",
      "type": "function"
    },
    {
      "constant": true,
      "inputs": [
        {
          "internalType": "string",
          "name": "_clientid",
          "type": "string"
        }
      ],
      "name": "fetchToken",
      "outputs": [
        {
          "internalType": "string",
          "name": "",
          "type": "string"
        }
      ],
      "payable": false,
      "stateMutability": "view",
      "type": "function"
    },
    {
      "constant": false,
      "inputs": [
        {
          "internalType": "string",
          "name": "_name",
          "type": "string"
        }
      ],
      "name": "registerClient",
      "outputs": [
        {
          "internalType": "uint256",
          "name": "",
          "type": "uint256"
        }
      ],
      "payable": false,
      "stateMutability": "nonpayable",
      "type": "function"
    },
    {
      "constant": false,
      "inputs": [
        {
          "internalType": "string",
          "name": "_pname",
          "type": "string"
        },
        {
          "internalType": "string",
          "name": "_cid",
          "type": "string"
        },
        {
          "internalType": "string",
          "name": "_cscrt",
          "type": "string"
        }
      ],
      "name": "addClientApp",
      "outputs": [
        {
          "internalType": "uint256",
          "name": "",
          "type": "uint256"
        }
      ],
      "payable": false,
      "stateMutability": "nonpayable",
      "type": "function"
    },
    {
      "constant": true,
      "inputs": [
        {
          "internalType": "uint256",
          "name": "_id",
          "type": "uint256"
        }
      ],
      "name": "getClientById",
      "outputs": [
        {
          "internalType": "uint256",
          "name": "",
          "type": "uint256"
        },
        {
          "internalType": "string",
          "name": "",
          "type": "string"
        },
        {
          "internalType": "string",
          "name": "",
          "type": "string"
        },
        {
          "internalType": "string",
          "name": "",
          "type": "string"
        },
        {
          "internalType": "string",
          "name": "",
          "type": "string"
        }
      ],
      "payable": false,
      "stateMutability": "view",
      "type": "function"
    },
    {
      "constant": true,
      "inputs": [],
      "name": "getClientProfile",
      "outputs": [
        {
          "internalType": "uint256",
          "name": "",
          "type": "uint256"
        },
        {
          "internalType": "string",
          "name": "",
          "type": "string"
        },
        {
          "internalType": "string",
          "name": "",
          "type": "string"
        },
        {
          "internalType": "string",
          "name": "",
          "type": "string"
        },
        {
          "internalType": "string",
          "name": "",
          "type": "string"
        }
      ],
      "payable": false,
      "stateMutability": "view",
      "type": "function"
    },
    {
      "constant": false,
      "inputs": [
        {
          "internalType": "string",
          "name": "_name",
          "type": "string"
        },
        {
          "internalType": "string",
          "name": "_dob",
          "type": "string"
        },
        {
          "internalType": "string",
          "name": "_idhash",
          "type": "string"
        },
        {
          "internalType": "string",
          "name": "_password",
          "type": "string"
        }
      ],
      "name": "registerUser",
      "outputs": [
        {
          "internalType": "uint256",
          "name": "",
          "type": "uint256"
        }
      ],
      "payable": false,
      "stateMutability": "nonpayable",
      "type": "function"
    },
    {
      "constant": false,
      "inputs": [
        {
          "internalType": "string",
          "name": "_idhash",
          "type": "string"
        },
        {
          "internalType": "string",
          "name": "_password",
          "type": "string"
        }
      ],
      "name": "updateUser",
      "outputs": [
        {
          "internalType": "uint256",
          "name": "",
          "type": "uint256"
        }
      ],
      "payable": false,
      "stateMutability": "nonpayable",
      "type": "function"
    },
    {
      "constant": true,
      "inputs": [
        {
          "internalType": "uint256",
          "name": "_id",
          "type": "uint256"
        }
      ],
      "name": "getUserById",
      "outputs": [
        {
          "internalType": "uint256",
          "name": "",
          "type": "uint256"
        },
        {
          "internalType": "string",
          "name": "",
          "type": "string"
        },
        {
          "internalType": "string",
          "name": "",
          "type": "string"
        },
        {
          "internalType": "address",
          "name": "",
          "type": "address"
        },
        {
          "internalType": "string",
          "name": "",
          "type": "string"
        },
        {
          "internalType": "string",
          "name": "",
          "type": "string"
        }
      ],
      "payable": false,
      "stateMutability": "view",
      "type": "function"
    },
    {
      "constant": true,
      "inputs": [],
      "name": "getOwnProfile",
      "outputs": [
        {
          "internalType": "uint256",
          "name": "",
          "type": "uint256"
        },
        {
          "internalType": "string",
          "name": "",
          "type": "string"
        },
        {
          "internalType": "string",
          "name": "",
          "type": "string"
        },
        {
          "internalType": "address",
          "name": "",
          "type": "address"
        },
        {
          "internalType": "string",
          "name": "",
          "type": "string"
        },
        {
          "internalType": "string",
          "name": "",
          "type": "string"
        }
      ],
      "payable": false,
      "stateMutability": "view",
      "type": "function"
    },
    {
      "constant": true,
      "inputs": [],
      "name": "isRegistered",
      "outputs": [
        {
          "internalType": "bool",
          "name": "",
          "type": "bool"
        }
      ],
      "payable": false,
      "stateMutability": "view",
      "type": "function"
    },
    {
      "constant": true,
      "inputs": [],
      "name": "totalUsers",
      "outputs": [
        {
          "internalType": "uint256",
          "name": "",
          "type": "uint256"
        }
      ],
      "payable": false,
      "stateMutability": "view",
      "type": "function"
    },
    {
      "constant": true,
      "inputs": [],
      "name": "totalClients",
      "outputs": [
        {
          "internalType": "uint256",
          "name": "",
          "type": "uint256"
        }
      ],
      "payable": false,
      "stateMutability": "view",
      "type": "function"
    }
  ],
  "bytecode": "0x60806040523480156200001157600080fd5b50620000fc60006040518060400160405280600181526020017f20000000000000000000000000000000000000000000000000000000000000008152506040518060400160405280600181526020017f30000000000000000000000000000000000000000000000000000000000000008152506040518060400160405280600181526020017f20000000000000000000000000000000000000000000000000000000000000008152506040518060400160405280600181526020017f20000000000000000000000000000000000000000000000000000000000000008152506200014c60201b60201c565b506200014560006040518060400160405280600181526020017f20000000000000000000000000000000000000000000000000000000000000008152506200036460201b60201c565b50620007a5565b6000806000808873ffffffffffffffffffffffffffffffffffffffff1673ffffffffffffffffffffffffffffffffffffffff168152602001908152602001600020549050600081146200019e57600080fd5b6004805490506000808973ffffffffffffffffffffffffffffffffffffffff1673ffffffffffffffffffffffffffffffffffffffff16815260200190815260200160002081905550600060048054809190600101620001fe919062000545565b90506040518060a001604052808881526020018781526020018973ffffffffffffffffffffffffffffffffffffffff16815260200186815260200185815250600482815481106200024b57fe5b90600052602060002090600502016000820151816000019080519060200190620002779291906200057a565b506020820151816001019080519060200190620002969291906200057a565b5060408201518160020160006101000a81548173ffffffffffffffffffffffffffffffffffffffff021916908373ffffffffffffffffffffffffffffffffffffffff1602179055506060820151816003019080519060200190620002fc9291906200057a565b5060808201518160040190805190602001906200031b9291906200057a565b509050507f2456c02735fb44894660d2af194ca5261385d8ee03675e1d75b0da1300a764cd816040518082815260200191505060405180910390a1809250505095945050505050565b600080600160008573ffffffffffffffffffffffffffffffffffffffff1673ffffffffffffffffffffffffffffffffffffffff16815260200190815260200160002054905060008114620003b757600080fd5b600380549050600160008673ffffffffffffffffffffffffffffffffffffffff1673ffffffffffffffffffffffffffffffffffffffff1681526020019081526020016000208190555060006003805480919060010162000418919062000601565b9050604051806080016040528085815260200160405180602001604052806000815250815260200160405180602001604052806000815250815260200160405180602001604052806000815250815250600382815481106200047657fe5b90600052602060002090600402016000820151816000019080519060200190620004a29291906200057a565b506020820151816001019080519060200190620004c19291906200057a565b506040820151816002019080519060200190620004e09291906200057a565b506060820151816003019080519060200190620004ff9291906200057a565b509050507f136334d20ef20958f612655b7fa1ba2ee58f395ca5515d06cda0ab26ccaede6d816040518082815260200191505060405180910390a1809250505092915050565b815481835581811115620005755760050281600502836000526020600020918201910162000574919062000636565b5b505050565b828054600181600116156101000203166002900490600052602060002090601f016020900481019282601f10620005bd57805160ff1916838001178555620005ee565b82800160010185558215620005ee579182015b82811115620005ed578251825591602001919060010190620005d0565b5b509050620005fd9190620006c7565b5090565b8154818355818111156200063157600402816004028360005260206000209182019101620006309190620006ef565b5b505050565b620006c491905b80821115620006c0576000808201600062000659919062000759565b6001820160006200066b919062000759565b6002820160006101000a81549073ffffffffffffffffffffffffffffffffffffffff0219169055600382016000620006a4919062000759565b600482016000620006b6919062000759565b506005016200063d565b5090565b90565b620006ec91905b80821115620006e8576000816000905550600101620006ce565b5090565b90565b6200075691905b8082111562000752576000808201600062000712919062000759565b60018201600062000724919062000759565b60028201600062000736919062000759565b60038201600062000748919062000759565b50600401620006f6565b5090565b90565b50805460018160011615610100020316600290046000825580601f10620007815750620007a2565b601f016020900490600052602060002090810190620007a19190620006c7565b5b50565b6134a880620007b56000396000f3fe608060405234801561001057600080fd5b50600436106101165760003560e01c8063812e3219116100a2578063bff1f9e111610071578063bff1f9e1146112dc578063dd4a2425146112fa578063e815f43f14611460578063ec0adffd14611652578063fd1b51581461178657610116565b8063812e321914610be757806393e54a5614610dd2578063a2f9eac614611066578063ad651b541461128457610116565b80633ce4fcf7116100e95780633ce4fcf7146105ba5780634553e1de146106125780634c6448fe146107e05780636ed6da9e146108af578063803ad4de14610ad457610116565b80630e08b0e31461011b578063223668441461013957806324e4f2f01461015b57806333b4de3d14610358575b600080fd5b610123611987565b6040518082815260200191505060405180910390f35b610141611997565b604051808215151515815260200191505060405180910390f35b6103426004803603606081101561017157600080fd5b810190808035906020019064010000000081111561018e57600080fd5b8201836020820111156101a057600080fd5b803590602001918460018302840111640100000000831117156101c257600080fd5b91908080601f016020809104026020016040519081016040528093929190818152602001838380828437600081840152601f19601f8201169050808301925050505050505091929192908035906020019064010000000081111561022557600080fd5b82018360208201111561023757600080fd5b8035906020019184600183028401116401000000008311171561025957600080fd5b91908080601f016020809104026020016040519081016040528093929190818152602001838380828437600081840152601f19601f820116905080830192505050505050509192919290803590602001906401000000008111156102bc57600080fd5b8201836020820111156102ce57600080fd5b803590602001918460018302840111640100000000831117156102f057600080fd5b91908080601f016020809104026020016040519081016040528093929190818152602001838380828437600081840152601f19601f8201169050808301925050505050505091929192905050506119df565b6040518082815260200191505060405180910390f35b61053f6004803603606081101561036e57600080fd5b810190808035906020019064010000000081111561038b57600080fd5b82018360208201111561039d57600080fd5b803590602001918460018302840111640100000000831117156103bf57600080fd5b91908080601f016020809104026020016040519081016040528093929190818152602001838380828437600081840152601f19601f8201169050808301925050505050505091929192908035906020019064010000000081111561042257600080fd5b82018360208201111561043457600080fd5b8035906020019184600183028401116401000000008311171561045657600080fd5b91908080601f016020809104026020016040519081016040528093929190818152602001838380828437600081840152601f19601f820116905080830192505050505050509192919290803590602001906401000000008111156104b957600080fd5b8201836020820111156104cb57600080fd5b803590602001918460018302840111640100000000831117156104ed57600080fd5b91908080601f016020809104026020016040519081016040528093929190818152602001838380828437600081840152601f19601f820116905080830192505050505050509192919290505050611ad1565b6040518080602001828103825283818151815260200191508051906020019080838360005b8381101561057f578082015181840152602081019050610564565b50505050905090810190601f1680156105ac5780820380516001836020036101000a031916815260200191505b509250505060405180910390f35b6105fc600480360360208110156105d057600080fd5b81019080803573ffffffffffffffffffffffffffffffffffffffff169060200190929190505050611bba565b6040518082815260200191505060405180910390f35b61061a611bd2565b6040518086815260200180602001806020018060200180602001858103855289818151815260200191508051906020019080838360005b8381101561066c578082015181840152602081019050610651565b50505050905090810190601f1680156106995780820380516001836020036101000a031916815260200191505b50858103845288818151815260200191508051906020019080838360005b838110156106d25780820151818401526020810190506106b7565b50505050905090810190601f1680156106ff5780820380516001836020036101000a031916815260200191505b50858103835287818151815260200191508051906020019080838360005b8381101561073857808201518184015260208101905061071d565b50505050905090810190601f1680156107655780820380516001836020036101000a031916815260200191505b50858103825286818151815260200191508051906020019080838360005b8381101561079e578082015181840152602081019050610783565b50505050905090810190601f1680156107cb5780820380516001836020036101000a031916815260200191505b50995050505050505050505060405180910390f35b610899600480360360208110156107f657600080fd5b810190808035906020019064010000000081111561081357600080fd5b82018360208201111561082557600080fd5b8035906020019184600183028401116401000000008311171561084757600080fd5b91908080601f016020809104026020016040519081016040528093929190818152602001838380828437600081840152601f19601f820116905080830192505050505050509192919290505050611c4a565b6040518082815260200191505060405180910390f35b6108db600480360360208110156108c557600080fd5b8101908080359060200190929190505050611c5d565b6040518087815260200180602001806020018673ffffffffffffffffffffffffffffffffffffffff1673ffffffffffffffffffffffffffffffffffffffff168152602001806020018060200185810385528a818151815260200191508051906020019080838360005b8381101561095f578082015181840152602081019050610944565b50505050905090810190601f16801561098c5780820380516001836020036101000a031916815260200191505b50858103845289818151815260200191508051906020019080838360005b838110156109c55780820151818401526020810190506109aa565b50505050905090810190601f1680156109f25780820380516001836020036101000a031916815260200191505b50858103835287818151815260200191508051906020019080838360005b83811015610a2b578082015181840152602081019050610a10565b50505050905090810190601f168015610a585780820380516001836020036101000a031916815260200191505b50858103825286818151815260200191508051906020019080838360005b83811015610a91578082015181840152602081019050610a76565b50505050905090810190601f168015610abe5780820380516001836020036101000a031916815260200191505b509a505050505050505050505060405180910390f35b610b0060048036036020811015610aea57600080fd5b8101908080359060200190929190505050611fce565b604051808060200180602001838103835285818151815260200191508051906020019080838360005b83811015610b44578082015181840152602081019050610b29565b50505050905090810190601f168015610b715780820380516001836020036101000a031916815260200191505b50838103825284818151815260200191508051906020019080838360005b83811015610baa578082015181840152602081019050610b8f565b50505050905090810190601f168015610bd75780820380516001836020036101000a031916815260200191505b5094505050505060405180910390f35b610c1360048036036020811015610bfd57600080fd5b810190808035906020019092919050505061212f565b6040518080602001806020018060200180602001858103855289818151815260200191508051906020019080838360005b83811015610c5f578082015181840152602081019050610c44565b50505050905090810190601f168015610c8c5780820380516001836020036101000a031916815260200191505b50858103845288818151815260200191508051906020019080838360005b83811015610cc5578082015181840152602081019050610caa565b50505050905090810190601f168015610cf25780820380516001836020036101000a031916815260200191505b50858103835287818151815260200191508051906020019080838360005b83811015610d2b578082015181840152602081019050610d10565b50505050905090810190601f168015610d585780820380516001836020036101000a031916815260200191505b50858103825286818151815260200191508051906020019080838360005b83811015610d91578082015181840152602081019050610d76565b50505050905090810190601f168015610dbe5780820380516001836020036101000a031916815260200191505b509850505050505050505060405180910390f35b61105060048036036080811015610de857600080fd5b8101908080359060200190640100000000811115610e0557600080fd5b820183602082011115610e1757600080fd5b80359060200191846001830284011164010000000083111715610e3957600080fd5b91908080601f016020809104026020016040519081016040528093929190818152602001838380828437600081840152601f19601f82011690508083019250505050505050919291929080359060200190640100000000811115610e9c57600080fd5b820183602082011115610eae57600080fd5b80359060200191846001830284011164010000000083111715610ed057600080fd5b91908080601f016020809104026020016040519081016040528093929190818152602001838380828437600081840152601f19601f82011690508083019250505050505050919291929080359060200190640100000000811115610f3357600080fd5b820183602082011115610f4557600080fd5b80359060200191846001830284011164010000000083111715610f6757600080fd5b91908080601f016020809104026020016040519081016040528093929190818152602001838380828437600081840152601f19601f82011690508083019250505050505050919291929080359060200190640100000000811115610fca57600080fd5b820183602082011115610fdc57600080fd5b80359060200191846001830284011164010000000083111715610ffe57600080fd5b91908080601f016020809104026020016040519081016040528093929190818152602001838380828437600081840152601f19601f8201169050808301925050505050505091929192905050506123cc565b6040518082815260200191505060405180910390f35b6110926004803603602081101561107c57600080fd5b81019080803590602001909291905050506123e5565b6040518080602001806020018673ffffffffffffffffffffffffffffffffffffffff1673ffffffffffffffffffffffffffffffffffffffff168152602001806020018060200185810385528a818151815260200191508051906020019080838360005b838110156111105780820151818401526020810190506110f5565b50505050905090810190601f16801561113d5780820380516001836020036101000a031916815260200191505b50858103845289818151815260200191508051906020019080838360005b8381101561117657808201518184015260208101905061115b565b50505050905090810190601f1680156111a35780820380516001836020036101000a031916815260200191505b50858103835287818151815260200191508051906020019080838360005b838110156111dc5780820151818401526020810190506111c1565b50505050905090810190601f1680156112095780820380516001836020036101000a031916815260200191505b50858103825286818151815260200191508051906020019080838360005b83811015611242578082015181840152602081019050611227565b50505050905090810190601f16801561126f5780820380516001836020036101000a031916815260200191505b50995050505050505050505060405180910390f35b6112c66004803603602081101561129a57600080fd5b81019080803573ffffffffffffffffffffffffffffffffffffffff1690602001909291905050506126a8565b6040518082815260200191505060405180910390f35b6112e46126c0565b6040518082815260200191505060405180910390f35b61144a6004803603604081101561131057600080fd5b810190808035906020019064010000000081111561132d57600080fd5b82018360208201111561133f57600080fd5b8035906020019184600183028401116401000000008311171561136157600080fd5b91908080601f016020809104026020016040519081016040528093929190818152602001838380828437600081840152601f19601f820116905080830192505050505050509192919290803590602001906401000000008111156113c457600080fd5b8201836020820111156113d657600080fd5b803590602001918460018302840111640100000000831117156113f857600080fd5b91908080601f016020809104026020016040519081016040528093929190818152602001838380828437600081840152601f19601f8201169050808301925050505050505091929192905050506126d0565b6040518082815260200191505060405180910390f35b61148c6004803603602081101561147657600080fd5b81019080803590602001909291905050506127b9565b6040518086815260200180602001806020018060200180602001858103855289818151815260200191508051906020019080838360005b838110156114de5780820151818401526020810190506114c3565b50505050905090810190601f16801561150b5780820380516001836020036101000a031916815260200191505b50858103845288818151815260200191508051906020019080838360005b83811015611544578082015181840152602081019050611529565b50505050905090810190601f1680156115715780820380516001836020036101000a031916815260200191505b50858103835287818151815260200191508051906020019080838360005b838110156115aa57808201518184015260208101905061158f565b50505050905090810190601f1680156115d75780820380516001836020036101000a031916815260200191505b50858103825286818151815260200191508051906020019080838360005b838110156116105780820151818401526020810190506115f5565b50505050905090810190601f16801561163d5780820380516001836020036101000a031916815260200191505b50995050505050505050505060405180910390f35b61170b6004803603602081101561166857600080fd5b810190808035906020019064010000000081111561168557600080fd5b82018360208201111561169757600080fd5b803590602001918460018302840111640100000000831117156116b957600080fd5b91908080601f016020809104026020016040519081016040528093929190818152602001838380828437600081840152601f19601f820116905080830192505050505050509192919290505050612acb565b6040518080602001828103825283818151815260200191508051906020019080838360005b8381101561174b578082015181840152602081019050611730565b50505050905090810190601f1680156117785780820380516001836020036101000a031916815260200191505b509250505060405180910390f35b61178e612cd9565b6040518087815260200180602001806020018673ffffffffffffffffffffffffffffffffffffffff1673ffffffffffffffffffffffffffffffffffffffff168152602001806020018060200185810385528a818151815260200191508051906020019080838360005b838110156118125780820151818401526020810190506117f7565b50505050905090810190601f16801561183f5780820380516001836020036101000a031916815260200191505b50858103845289818151815260200191508051906020019080838360005b8381101561187857808201518184015260208101905061185d565b50505050905090810190601f1680156118a55780820380516001836020036101000a031916815260200191505b50858103835287818151815260200191508051906020019080838360005b838110156118de5780820151818401526020810190506118c3565b50505050905090810190601f16801561190b5780820380516001836020036101000a031916815260200191505b50858103825286818151815260200191508051906020019080838360005b83811015611944578082015181840152602081019050611929565b50505050905090810190601f1680156119715780820380516001836020036101000a031916815260200191505b509a505050505050505050505060405180910390f35b6000600160038054905003905090565b6000806000803373ffffffffffffffffffffffffffffffffffffffff1673ffffffffffffffffffffffffffffffffffffffff1681526020019081526020016000205411905090565b600080600160003373ffffffffffffffffffffffffffffffffffffffff1673ffffffffffffffffffffffffffffffffffffffff168152602001908152602001600020549050600060038281548110611a3357fe5b9060005260206000209060040201905085816003019080519060200190611a5b929190613136565b5084816001019080519060200190611a74929190613136565b5083816002019080519060200190611a8d929190613136565b507f7a0b41e108f3e0bbb22916a003ae01f600ff874423a08c6520854b324bf0c1f9826040518082815260200191505060405180910390a181925050509392505050565b606060006002856040518082805190602001908083835b60208310611b0b5780518252602082019150602081019050602083039250611ae8565b6001836020036101000a038019825116818451168082178552505050505050905001915050908152602001604051809103902060003373ffffffffffffffffffffffffffffffffffffffff1673ffffffffffffffffffffffffffffffffffffffff168152602001908152602001600020905083816000019080519060200190611b95929190613136565b5082816001019080519060200190611bae929190613136565b50839150509392505050565b60016020528060005260406000206000915090505481565b6000606080606080611be2611997565b611beb57600080fd5b6000600160003373ffffffffffffffffffffffffffffffffffffffff1673ffffffffffffffffffffffffffffffffffffffff168152602001908152602001600020549050611c38816127b9565b95509550955095509550509091929394565b6000611c563383612d55565b9050919050565b600060608060006060806000871180611c7b57506004805490508711155b611c8457600080fd5b611c8c6131b6565b60048881548110611c9957fe5b90600052602060002090600502016040518060a0016040529081600082018054600181600116156101000203166002900480601f016020809104026020016040519081016040528092919081815260200182805460018160011615610100020316600290048015611d4b5780601f10611d2057610100808354040283529160200191611d4b565b820191906000526020600020905b815481529060010190602001808311611d2e57829003601f168201915b50505050508152602001600182018054600181600116156101000203166002900480601f016020809104026020016040519081016040528092919081815260200182805460018160011615610100020316600290048015611ded5780601f10611dc257610100808354040283529160200191611ded565b820191906000526020600020905b815481529060010190602001808311611dd057829003601f168201915b505050505081526020016002820160009054906101000a900473ffffffffffffffffffffffffffffffffffffffff1673ffffffffffffffffffffffffffffffffffffffff1673ffffffffffffffffffffffffffffffffffffffff168152602001600382018054600181600116156101000203166002900480601f016020809104026020016040519081016040528092919081815260200182805460018160011615610100020316600290048015611ee55780601f10611eba57610100808354040283529160200191611ee5565b820191906000526020600020905b815481529060010190602001808311611ec857829003601f168201915b50505050508152602001600482018054600181600116156101000203166002900480601f016020809104026020016040519081016040528092919081815260200182805460018160011615610100020316600290048015611f875780601f10611f5c57610100808354040283529160200191611f87565b820191906000526020600020905b815481529060010190602001808311611f6a57829003601f168201915b505050505081525050905087816000015182602001518360400151846060015185608001518494508393508191508090509650965096509650965096505091939550919395565b60058181548110611fdb57fe5b9060005260206000209060020201600091509050806000018054600181600116156101000203166002900480601f0160208091040260200160405190810160405280929190818152602001828054600181600116156101000203166002900480156120875780601f1061205c57610100808354040283529160200191612087565b820191906000526020600020905b81548152906001019060200180831161206a57829003601f168201915b505050505090806001018054600181600116156101000203166002900480601f0160208091040260200160405190810160405280929190818152602001828054600181600116156101000203166002900480156121255780601f106120fa57610100808354040283529160200191612125565b820191906000526020600020905b81548152906001019060200180831161210857829003601f168201915b5050505050905082565b6003818154811061213c57fe5b9060005260206000209060040201600091509050806000018054600181600116156101000203166002900480601f0160208091040260200160405190810160405280929190818152602001828054600181600116156101000203166002900480156121e85780601f106121bd576101008083540402835291602001916121e8565b820191906000526020600020905b8154815290600101906020018083116121cb57829003601f168201915b505050505090806001018054600181600116156101000203166002900480601f0160208091040260200160405190810160405280929190818152602001828054600181600116156101000203166002900480156122865780601f1061225b57610100808354040283529160200191612286565b820191906000526020600020905b81548152906001019060200180831161226957829003601f168201915b505050505090806002018054600181600116156101000203166002900480601f0160208091040260200160405190810160405280929190818152602001828054600181600116156101000203166002900480156123245780601f106122f957610100808354040283529160200191612324565b820191906000526020600020905b81548152906001019060200180831161230757829003601f168201915b505050505090806003018054600181600116156101000203166002900480601f0160208091040260200160405190810160405280929190818152602001828054600181600116156101000203166002900480156123c25780601f10612397576101008083540402835291602001916123c2565b820191906000526020600020905b8154815290600101906020018083116123a557829003601f168201915b5050505050905084565b60006123db3386868686612f2a565b9050949350505050565b600481815481106123f257fe5b9060005260206000209060050201600091509050806000018054600181600116156101000203166002900480601f01602080910402602001604051908101604052809291908181526020018280546001816001161561010002031660029004801561249e5780601f106124735761010080835404028352916020019161249e565b820191906000526020600020905b81548152906001019060200180831161248157829003601f168201915b505050505090806001018054600181600116156101000203166002900480601f01602080910402602001604051908101604052809291908181526020018280546001816001161561010002031660029004801561253c5780601f106125115761010080835404028352916020019161253c565b820191906000526020600020905b81548152906001019060200180831161251f57829003601f168201915b5050505050908060020160009054906101000a900473ffffffffffffffffffffffffffffffffffffffff1690806003018054600181600116156101000203166002900480601f0160208091040260200160405190810160405280929190818152602001828054600181600116156101000203166002900480156126005780601f106125d557610100808354040283529160200191612600565b820191906000526020600020905b8154815290600101906020018083116125e357829003601f168201915b505050505090806004018054600181600116156101000203166002900480601f01602080910402602001604051908101604052809291908181526020018280546001816001161561010002031660029004801561269e5780601f106126735761010080835404028352916020019161269e565b820191906000526020600020905b81548152906001019060200180831161268157829003601f168201915b5050505050905085565b60006020528060005260406000206000915090505481565b6000600160048054905003905090565b60006126da611997565b6126e357600080fd5b60008060003373ffffffffffffffffffffffffffffffffffffffff1673ffffffffffffffffffffffffffffffffffffffff16815260200190815260200160002054905060006004828154811061273557fe5b906000526020600020906005020190508481600301908051906020019061275d929190613136565b5083816004019080519060200190612776929190613136565b507f179dda4b314caed68129a8b8bbd77c7a4fb092c2d9fb3de452a4f8e4839dc876826040518082815260200191505060405180910390a1819250505092915050565b600060608060608060008611806127d557506003805490508611155b6127de57600080fd5b6127e66131fb565b600387815481106127f357fe5b9060005260206000209060040201604051806080016040529081600082018054600181600116156101000203166002900480601f0160208091040260200160405190810160405280929190818152602001828054600181600116156101000203166002900480156128a55780601f1061287a576101008083540402835291602001916128a5565b820191906000526020600020905b81548152906001019060200180831161288857829003601f168201915b50505050508152602001600182018054600181600116156101000203166002900480601f0160208091040260200160405190810160405280929190818152602001828054600181600116156101000203166002900480156129475780601f1061291c57610100808354040283529160200191612947565b820191906000526020600020905b81548152906001019060200180831161292a57829003601f168201915b50505050508152602001600282018054600181600116156101000203166002900480601f0160208091040260200160405190810160405280929190818152602001828054600181600116156101000203166002900480156129e95780601f106129be576101008083540402835291602001916129e9565b820191906000526020600020905b8154815290600101906020018083116129cc57829003601f168201915b50505050508152602001600382018054600181600116156101000203166002900480601f016020809104026020016040519081016040528092919081815260200182805460018160011615610100020316600290048015612a8b5780601f10612a6057610100808354040283529160200191612a8b565b820191906000526020600020905b815481529060010190602001808311612a6e57829003601f168201915b5050505050815250509050868160000151826020015183604001518460600151839350829250819150809050955095509550955095505091939590929450565b6060612ad5613223565b6002836040518082805190602001908083835b60208310612b0b5780518252602082019150602081019050602083039250612ae8565b6001836020036101000a038019825116818451168082178552505050505050905001915050908152602001604051809103902060003373ffffffffffffffffffffffffffffffffffffffff1673ffffffffffffffffffffffffffffffffffffffff168152602001908152602001600020604051806040016040529081600082018054600181600116156101000203166002900480601f016020809104026020016040519081016040528092919081815260200182805460018160011615610100020316600290048015612c1f5780601f10612bf457610100808354040283529160200191612c1f565b820191906000526020600020905b815481529060010190602001808311612c0257829003601f168201915b50505050508152602001600182018054600181600116156101000203166002900480601f016020809104026020016040519081016040528092919081815260200182805460018160011615610100020316600290048015612cc15780601f10612c9657610100808354040283529160200191612cc1565b820191906000526020600020905b815481529060010190602001808311612ca457829003601f168201915b50505050508152505090508060000151915050919050565b60006060806000606080612ceb611997565b612cf457600080fd5b60008060003373ffffffffffffffffffffffffffffffffffffffff1673ffffffffffffffffffffffffffffffffffffffff168152602001908152602001600020549050612d4081611c5d565b96509650965096509650965050909192939495565b600080600160008573ffffffffffffffffffffffffffffffffffffffff1673ffffffffffffffffffffffffffffffffffffffff16815260200190815260200160002054905060008114612da757600080fd5b600380549050600160008673ffffffffffffffffffffffffffffffffffffffff1673ffffffffffffffffffffffffffffffffffffffff16815260200190815260200160002081905550600060038054809190600101612e06919061323d565b905060405180608001604052808581526020016040518060200160405280600081525081526020016040518060200160405280600081525081526020016040518060200160405280600081525081525060038281548110612e6357fe5b90600052602060002090600402016000820151816000019080519060200190612e8d92919061326f565b506020820151816001019080519060200190612eaa92919061326f565b506040820151816002019080519060200190612ec792919061326f565b506060820151816003019080519060200190612ee492919061326f565b509050507f136334d20ef20958f612655b7fa1ba2ee58f395ca5515d06cda0ab26ccaede6d816040518082815260200191505060405180910390a1809250505092915050565b6000806000808873ffffffffffffffffffffffffffffffffffffffff1673ffffffffffffffffffffffffffffffffffffffff16815260200190815260200160002054905060008114612f7b57600080fd5b6004805490506000808973ffffffffffffffffffffffffffffffffffffffff1673ffffffffffffffffffffffffffffffffffffffff16815260200190815260200160002081905550600060048054809190600101612fd991906132ef565b90506040518060a001604052808881526020018781526020018973ffffffffffffffffffffffffffffffffffffffff168152602001868152602001858152506004828154811061302557fe5b9060005260206000209060050201600082015181600001908051906020019061304f92919061326f565b50602082015181600101908051906020019061306c92919061326f565b5060408201518160020160006101000a81548173ffffffffffffffffffffffffffffffffffffffff021916908373ffffffffffffffffffffffffffffffffffffffff16021790555060608201518160030190805190602001906130d092919061326f565b5060808201518160040190805190602001906130ed92919061326f565b509050507f2456c02735fb44894660d2af194ca5261385d8ee03675e1d75b0da1300a764cd816040518082815260200191505060405180910390a1809250505095945050505050565b828054600181600116156101000203166002900490600052602060002090601f016020900481019282601f1061317757805160ff19168380011785556131a5565b828001600101855582156131a5579182015b828111156131a4578251825591602001919060010190613189565b5b5090506131b29190613321565b5090565b6040518060a001604052806060815260200160608152602001600073ffffffffffffffffffffffffffffffffffffffff16815260200160608152602001606081525090565b6040518060800160405280606081526020016060815260200160608152602001606081525090565b604051806040016040528060608152602001606081525090565b81548183558181111561326a576004028160040283600052602060002091820191016132699190613346565b5b505050565b828054600181600116156101000203166002900490600052602060002090601f016020900481019282601f106132b057805160ff19168380011785556132de565b828001600101855582156132de579182015b828111156132dd5782518255916020019190600101906132c2565b5b5090506132eb9190613321565b5090565b81548183558181111561331c5760050281600502836000526020600020918201910161331b91906133a5565b5b505050565b61334391905b8082111561333f576000816000905550600101613327565b5090565b90565b6133a291905b8082111561339e5760008082016000613365919061342b565b600182016000613375919061342b565b600282016000613385919061342b565b600382016000613395919061342b565b5060040161334c565b5090565b90565b61342891905b8082111561342457600080820160006133c4919061342b565b6001820160006133d4919061342b565b6002820160006101000a81549073ffffffffffffffffffffffffffffffffffffffff021916905560038201600061340b919061342b565b60048201600061341b919061342b565b506005016133ab565b5090565b90565b50805460018160011615610100020316600290046000825580601f106134515750613470565b601f01602090049060005260206000209081019061346f9190613321565b5b5056fea265627a7a723158200c74a6acedabed4a4fbdff200b9ffa03ec9851738ca16d9b22609b4320d4c36964736f6c63430005100032",
  "source": "pragma solidity ^0.5.0;\n\ncontract Identity{\n\n    struct Person{\n            string name;\n            string date_of_birth;\n            address walletAddress;\n            string idhash;//Id ipns address\n            string password;//Id password\n    }\n    struct Client{\n        string name;\n        string client_id;\n        string client_secret;\n        string project_name;\n    }\n    struct Access{\n        string access_token;\n        string scope;\n    }\n    mapping (address =>uint ) public personIds;\n\n    mapping (address => uint ) public clientIds;\n    \n    // mapping (address => uint ) public accessIds;\n\n    mapping (string => mapping(address => Access) ) accesstoken;\n\n    Client[] public client;\n    Person[] public persons;\n    Access[] public access;\n\n    event newUserRegistered(uint id);\n    event userUpdateEvent(uint id);\n    event newClientRegistered(uint id);\n    event clientUpdateEvent(uint id);\n    \n    modifier checkSenderIsRegistered{\n        require (isRegistered());\n        _;\n    }\n\n    constructor() public {\n      addUser(address(0x000000000), \" \", '0',\" \",\" \");\n      addClient(address(0x000000000),\" \");\n    }\n    function addToken(string memory _clientid, string memory _token, string memory _scope) public returns(string memory){\n           Access storage a=  accesstoken[_clientid][msg.sender];\n           a.access_token=_token;\n           a.scope=_scope;\n        return _token;\n        \n    }\n    function fetchToken(string memory _clientid) public view\n    returns(string memory){\n        Access memory a = accesstoken[_clientid][msg.sender];\n        return(a.access_token);\n    }\n   \n \n    function registerClient(string memory _name) public returns(uint) {\n        return addClient(msg.sender, _name);\n    }\n    function addClient(address _wAddr, string memory _name) private returns(uint){\n        uint clientId = clientIds[_wAddr];\n        require(clientId == 0);\n\n        clientIds[_wAddr] = client.length;\n        uint newClientId = client.length++;\n\n        client[newClientId] = Client({\n            name : _name,\n            client_id: \"\",\n            client_secret: \"\",\n            project_name: \"\"\n        });\n        emit newClientRegistered(newClientId);\n\n        return newClientId;\n    }\n    function addClientApp(string memory _pname, string memory _cid, string memory _cscrt) public returns(uint){\n        uint clientId = clientIds[msg.sender];\n        Client storage c = client[clientId];\n        c.project_name = _pname;\n        c.client_id = _cid;\n        c.client_secret = _cscrt;\n\n        emit clientUpdateEvent(clientId);\n\n        return clientId;\n    }\n\n\n    function getClientById(uint _id) public view\n    returns(\n      uint,\n      string memory,\n      string memory,\n      string memory,\n      string memory\n      ){\n        require((_id > 0 ) || (_id <= client.length));\n\n        Client memory i = client[_id];\n\n        return(\n          _id,\n          i.name,\n          i.client_id,\n          i.client_secret,\n          i.project_name\n          );\n      }      \n    function getClientProfile() checkSenderIsRegistered public view\n        returns(\n          uint,\n          string memory,\n          string memory,\n          string memory,\n          string memory\n          ) {\n            uint ids = clientIds[msg.sender];\n\n            return getClientById(ids);\n          }\n    function registerUser( string memory _name, string memory _dob, string memory _idhash, string memory _password) public\n    returns(uint)\n    {\n      return addUser(msg.sender, _name, _dob, _idhash,_password);\n    }\n\n    function addUser( address _wAddr, string memory _name, string memory _dob, string memory _idhash, string memory _password) private\n    returns(uint)\n    {\n      uint userId = personIds[_wAddr];\n      require(userId == 0);\n\n      personIds[_wAddr] = persons.length;\n      uint newUserId = persons.length++;\n\n      persons[newUserId] = Person({\n        name:_name,\n        date_of_birth : _dob,\n        walletAddress : _wAddr,\n        idhash : _idhash,\n        password : _password\n        });\n\n        emit newUserRegistered(newUserId);\n\n        return newUserId;\n    }\n    function updateUser(string memory _idhash, string memory _password) checkSenderIsRegistered public\n    returns(uint){\n      uint userId = personIds[msg.sender];\n      Person storage person = persons[userId];\n\n      person.idhash = _idhash;\n      person.password = _password;\n\n      emit userUpdateEvent(userId);\n\n      return userId;\n    }\n\n    function getUserById(uint _id) public view\n    returns(\n      uint,\n      string memory,\n      string memory,\n      address,\n      string memory,\n      string memory\n      ){\n        require((_id > 0 ) || (_id <= persons.length));\n\n        Person memory i = persons[_id];\n\n        return(\n          _id,\n          i.name,\n          i.date_of_birth,\n          i.walletAddress,\n          i.idhash,\n          i.password\n          );\n      }\n\n      function getOwnProfile() checkSenderIsRegistered public view\n        returns(\n          uint,\n          string memory,\n          string memory,\n          address,\n          string memory,\n          string memory\n          ) {\n            uint id = personIds[msg.sender];\n\n            return getUserById(id);\n          }\n\n      function isRegistered() public view returns (bool){\n        return (personIds[msg.sender] > 0);\n      }\n\n      function totalUsers() public view returns (uint){\n        return persons.length - 1;\n      }\n      function totalClients() public view returns (uint){\n        return client.length - 1;\n      }\n}\n",
  "sourcePath": "C:/Users/Administrator/Desktop/Identity-3.0-master_3/Identity-3.0-master/contracts/Identity.sol",
  "compiler": {
    "name": "solc",
    "version": "0.5.16+commit.9c3226ce.Emscripten.clang"
  },
  "schemaVersion": "3.3.3",
  "updatedAt": "2021-02-17T12:45:48.240Z",
  "networkType": "ethereum",
  "devdoc": {
    "methods": {}
  },
  "userdoc": {
    "methods": {}
  }
}