{
  "contractName": "Auth",
  "abi": [
    {
      "inputs": [
        {
          "internalType": "address",
          "name": "_t",
          "type": "address"
        }
      ],
      "payable": false,
      "stateMutability": "nonpayable",
      "type": "constructor"
    },
    {
      "anonymous": false,
      "inputs": [
        {
          "indexed": false,
          "internalType": "uint256",
          "name": "id",
          "type": "uint256"
        }
      ],
      "name": "clientUpdateEvent",
      "type": "event"
    },
    {
      "anonymous": false,
      "inputs": [
        {
          "indexed": false,
          "internalType": "uint256",
          "name": "id",
          "type": "uint256"
        }
      ],
      "name": "newClientRegistered",
      "type": "event"
    },
    {
      "constant": true,
      "inputs": [
        {
          "internalType": "uint256",
          "name": "",
          "type": "uint256"
        }
      ],
      "name": "client",
      "outputs": [
        {
          "internalType": "string",
          "name": "name",
          "type": "string"
        },
        {
          "internalType": "string",
          "name": "client_id",
          "type": "string"
        },
        {
          "internalType": "string",
          "name": "client_secret",
          "type": "string"
        },
        {
          "internalType": "string",
          "name": "project_name",
          "type": "string"
        }
      ],
      "payable": false,
      "stateMutability": "view",
      "type": "function"
    },
    {
      "constant": true,
      "inputs": [
        {
          "internalType": "address",
          "name": "",
          "type": "address"
        }
      ],
      "name": "clientIds",
      "outputs": [
        {
          "internalType": "uint256",
          "name": "",
          "type": "uint256"
        }
      ],
      "payable": false,
      "stateMutability": "view",
      "type": "function"
    },
    {
      "constant": false,
      "inputs": [
        {
          "internalType": "string",
          "name": "_name",
          "type": "string"
        }
      ],
      "name": "registerClient",
      "outputs": [
        {
          "internalType": "uint256",
          "name": "",
          "type": "uint256"
        }
      ],
      "payable": false,
      "stateMutability": "nonpayable",
      "type": "function"
    },
    {
      "constant": false,
      "inputs": [
        {
          "internalType": "string",
          "name": "_pname",
          "type": "string"
        },
        {
          "internalType": "string",
          "name": "_cid",
          "type": "string"
        },
        {
          "internalType": "string",
          "name": "_cscrt",
          "type": "string"
        }
      ],
      "name": "addClientApp",
      "outputs": [
        {
          "internalType": "uint256",
          "name": "",
          "type": "uint256"
        }
      ],
      "payable": false,
      "stateMutability": "nonpayable",
      "type": "function"
    },
    {
      "constant": true,
      "inputs": [],
      "name": "totalClients",
      "outputs": [
        {
          "internalType": "uint256",
          "name": "",
          "type": "uint256"
        }
      ],
      "payable": false,
      "stateMutability": "view",
      "type": "function"
    },
    {
      "constant": true,
      "inputs": [
        {
          "internalType": "uint256",
          "name": "_id",
          "type": "uint256"
        }
      ],
      "name": "getClientById",
      "outputs": [
        {
          "internalType": "string",
          "name": "",
          "type": "string"
        },
        {
          "internalType": "string",
          "name": "",
          "type": "string"
        },
        {
          "internalType": "string",
          "name": "",
          "type": "string"
        },
        {
          "internalType": "string",
          "name": "",
          "type": "string"
        }
      ],
      "payable": false,
      "stateMutability": "view",
      "type": "function"
    },
    {
      "constant": true,
      "inputs": [],
      "name": "getClientProfile",
      "outputs": [
        {
          "internalType": "string",
          "name": "",
          "type": "string"
        },
        {
          "internalType": "string",
          "name": "",
          "type": "string"
        },
        {
          "internalType": "string",
          "name": "",
          "type": "string"
        },
        {
          "internalType": "string",
          "name": "",
          "type": "string"
        }
      ],
      "payable": false,
      "stateMutability": "view",
      "type": "function"
    }
  ],
  "bytecode": "0x608060405234801561001057600080fd5b5060405161160a38038061160a8339818101604052602081101561003357600080fd5b8101908080519060200190929190505050806000806101000a81548173ffffffffffffffffffffffffffffffffffffffff021916908373ffffffffffffffffffffffffffffffffffffffff16021790555050611576806100946000396000f3fe608060405234801561001057600080fd5b506004361061007d5760003560e01c80634553e1de1161005b5780634553e1de146102f55780634c6448fe146104bc578063812e32191461058b578063e815f43f146107765761007d565b80630e08b0e31461008257806324e4f2f0146100a05780633ce4fcf71461029d575b600080fd5b61008a610961565b6040518082815260200191505060405180910390f35b610287600480360360608110156100b657600080fd5b81019080803590602001906401000000008111156100d357600080fd5b8201836020820111156100e557600080fd5b8035906020019184600183028401116401000000008311171561010757600080fd5b91908080601f016020809104026020016040519081016040528093929190818152602001838380828437600081840152601f19601f8201169050808301925050505050505091929192908035906020019064010000000081111561016a57600080fd5b82018360208201111561017c57600080fd5b8035906020019184600183028401116401000000008311171561019e57600080fd5b91908080601f016020809104026020016040519081016040528093929190818152602001838380828437600081840152601f19601f8201169050808301925050505050505091929192908035906020019064010000000081111561020157600080fd5b82018360208201111561021357600080fd5b8035906020019184600183028401116401000000008311171561023557600080fd5b91908080601f016020809104026020016040519081016040528093929190818152602001838380828437600081840152601f19601f820116905080830192505050505050509192919290505050610971565b6040518082815260200191505060405180910390f35b6102df600480360360208110156102b357600080fd5b81019080803573ffffffffffffffffffffffffffffffffffffffff169060200190929190505050610a63565b6040518082815260200191505060405180910390f35b6102fd610a7b565b6040518080602001806020018060200180602001858103855289818151815260200191508051906020019080838360005b8381101561034957808201518184015260208101905061032e565b50505050905090810190601f1680156103765780820380516001836020036101000a031916815260200191505b50858103845288818151815260200191508051906020019080838360005b838110156103af578082015181840152602081019050610394565b50505050905090810190601f1680156103dc5780820380516001836020036101000a031916815260200191505b50858103835287818151815260200191508051906020019080838360005b838110156104155780820151818401526020810190506103fa565b50505050905090810190601f1680156104425780820380516001836020036101000a031916815260200191505b50858103825286818151815260200191508051906020019080838360005b8381101561047b578082015181840152602081019050610460565b50505050905090810190601f1680156104a85780820380516001836020036101000a031916815260200191505b509850505050505050505060405180910390f35b610575600480360360208110156104d257600080fd5b81019080803590602001906401000000008111156104ef57600080fd5b82018360208201111561050157600080fd5b8035906020019184600183028401116401000000008311171561052357600080fd5b91908080601f016020809104026020016040519081016040528093929190818152602001838380828437600081840152601f19601f820116905080830192505050505050509192919290505050610b8b565b6040518082815260200191505060405180910390f35b6105b7600480360360208110156105a157600080fd5b8101908080359060200190929190505050610b9e565b6040518080602001806020018060200180602001858103855289818151815260200191508051906020019080838360005b838110156106035780820151818401526020810190506105e8565b50505050905090810190601f1680156106305780820380516001836020036101000a031916815260200191505b50858103845288818151815260200191508051906020019080838360005b8381101561066957808201518184015260208101905061064e565b50505050905090810190601f1680156106965780820380516001836020036101000a031916815260200191505b50858103835287818151815260200191508051906020019080838360005b838110156106cf5780820151818401526020810190506106b4565b50505050905090810190601f1680156106fc5780820380516001836020036101000a031916815260200191505b50858103825286818151815260200191508051906020019080838360005b8381101561073557808201518184015260208101905061071a565b50505050905090810190601f1680156107625780820380516001836020036101000a031916815260200191505b509850505050505050505060405180910390f35b6107a26004803603602081101561078c57600080fd5b8101908080359060200190929190505050610e3b565b6040518080602001806020018060200180602001858103855289818151815260200191508051906020019080838360005b838110156107ee5780820151818401526020810190506107d3565b50505050905090810190601f16801561081b5780820380516001836020036101000a031916815260200191505b50858103845288818151815260200191508051906020019080838360005b83811015610854578082015181840152602081019050610839565b50505050905090810190601f1680156108815780820380516001836020036101000a031916815260200191505b50858103835287818151815260200191508051906020019080838360005b838110156108ba57808201518184015260208101905061089f565b50505050905090810190601f1680156108e75780820380516001836020036101000a031916815260200191505b50858103825286818151815260200191508051906020019080838360005b83811015610920578082015181840152602081019050610905565b50505050905090810190601f16801561094d5780820380516001836020036101000a031916815260200191505b509850505050505050505060405180910390f35b6000600160028054905003905090565b600080600160003373ffffffffffffffffffffffffffffffffffffffff1673ffffffffffffffffffffffffffffffffffffffff1681526020019081526020016000205490506000600282815481106109c557fe5b90600052602060002090600402019050858160030190805190602001906109ed92919061131b565b5084816001019080519060200190610a0692919061131b565b5083816002019080519060200190610a1f92919061131b565b507f7a0b41e108f3e0bbb22916a003ae01f600ff874423a08c6520854b324bf0c1f9826040518082815260200191505060405180910390a181925050509392505050565b60016020528060005260406000206000915090505481565b60608060608060016000809054906101000a900473ffffffffffffffffffffffffffffffffffffffff1673ffffffffffffffffffffffffffffffffffffffff1663223668446040518163ffffffff1660e01b815260040160206040518083038186803b158015610aea57600080fd5b505afa158015610afe573d6000803e3d6000fd5b505050506040513d6020811015610b1457600080fd5b810190808051906020019092919050505014610b2f57600080fd5b6000600160003373ffffffffffffffffffffffffffffffffffffffff1673ffffffffffffffffffffffffffffffffffffffff168152602001908152602001600020549050610b7c81610e3b565b94509450945094505090919293565b6000610b973383611146565b9050919050565b60028181548110610bab57fe5b9060005260206000209060040201600091509050806000018054600181600116156101000203166002900480601f016020809104026020016040519081016040528092919081815260200182805460018160011615610100020316600290048015610c575780601f10610c2c57610100808354040283529160200191610c57565b820191906000526020600020905b815481529060010190602001808311610c3a57829003601f168201915b505050505090806001018054600181600116156101000203166002900480601f016020809104026020016040519081016040528092919081815260200182805460018160011615610100020316600290048015610cf55780601f10610cca57610100808354040283529160200191610cf5565b820191906000526020600020905b815481529060010190602001808311610cd857829003601f168201915b505050505090806002018054600181600116156101000203166002900480601f016020809104026020016040519081016040528092919081815260200182805460018160011615610100020316600290048015610d935780601f10610d6857610100808354040283529160200191610d93565b820191906000526020600020905b815481529060010190602001808311610d7657829003601f168201915b505050505090806003018054600181600116156101000203166002900480601f016020809104026020016040519081016040528092919081815260200182805460018160011615610100020316600290048015610e315780601f10610e0657610100808354040283529160200191610e31565b820191906000526020600020905b815481529060010190602001808311610e1457829003601f168201915b5050505050905084565b6060806060806000851180610e5557506002805490508511155b610e5e57600080fd5b610e6661139b565b60028681548110610e7357fe5b9060005260206000209060040201604051806080016040529081600082018054600181600116156101000203166002900480601f016020809104026020016040519081016040528092919081815260200182805460018160011615610100020316600290048015610f255780601f10610efa57610100808354040283529160200191610f25565b820191906000526020600020905b815481529060010190602001808311610f0857829003601f168201915b50505050508152602001600182018054600181600116156101000203166002900480601f016020809104026020016040519081016040528092919081815260200182805460018160011615610100020316600290048015610fc75780601f10610f9c57610100808354040283529160200191610fc7565b820191906000526020600020905b815481529060010190602001808311610faa57829003601f168201915b50505050508152602001600282018054600181600116156101000203166002900480601f0160208091040260200160405190810160405280929190818152602001828054600181600116156101000203166002900480156110695780601f1061103e57610100808354040283529160200191611069565b820191906000526020600020905b81548152906001019060200180831161104c57829003601f168201915b50505050508152602001600382018054600181600116156101000203166002900480601f01602080910402602001604051908101604052809291908181526020018280546001816001161561010002031660029004801561110b5780601f106110e05761010080835404028352916020019161110b565b820191906000526020600020905b8154815290600101906020018083116110ee57829003601f168201915b505050505081525050905080600001518160200151826040015183606001518393508292508191508090509450945094509450509193509193565b600080600160008573ffffffffffffffffffffffffffffffffffffffff1673ffffffffffffffffffffffffffffffffffffffff1681526020019081526020016000205490506000811461119857600080fd5b600280549050600160008673ffffffffffffffffffffffffffffffffffffffff1673ffffffffffffffffffffffffffffffffffffffff168152602001908152602001600020819055506000600280548091906001016111f791906113c3565b90506040518060800160405280858152602001604051806020016040528060008152508152602001604051806020016040528060008152508152602001604051806020016040528060008152508152506002828154811061125457fe5b9060005260206000209060040201600082015181600001908051906020019061127e9291906113f5565b50602082015181600101908051906020019061129b9291906113f5565b5060408201518160020190805190602001906112b89291906113f5565b5060608201518160030190805190602001906112d59291906113f5565b509050507f136334d20ef20958f612655b7fa1ba2ee58f395ca5515d06cda0ab26ccaede6d816040518082815260200191505060405180910390a1809250505092915050565b828054600181600116156101000203166002900490600052602060002090601f016020900481019282601f1061135c57805160ff191683800117855561138a565b8280016001018555821561138a579182015b8281111561138957825182559160200191906001019061136e565b5b5090506113979190611475565b5090565b6040518060800160405280606081526020016060815260200160608152602001606081525090565b8154818355818111156113f0576004028160040283600052602060002091820191016113ef919061149a565b5b505050565b828054600181600116156101000203166002900490600052602060002090601f016020900481019282601f1061143657805160ff1916838001178555611464565b82800160010185558215611464579182015b82811115611463578251825591602001919060010190611448565b5b5090506114719190611475565b5090565b61149791905b8082111561149357600081600090555060010161147b565b5090565b90565b6114f691905b808211156114f257600080820160006114b991906114f9565b6001820160006114c991906114f9565b6002820160006114d991906114f9565b6003820160006114e991906114f9565b506004016114a0565b5090565b90565b50805460018160011615610100020316600290046000825580601f1061151f575061153e565b601f01602090049060005260206000209081019061153d9190611475565b5b5056fea265627a7a723158203c08eea3d94b79f13110078428ae2eec18a90e81ea0796454484500e4cc9838e64736f6c63430005100032",
  "source": "pragma solidity ^0.5.0;\ncontract Identity{\n    function isRegistered() public view returns(uint){}\n}\ncontract Auth{\n    Identity user;\n    constructor(address _t) public {\n        user = Identity(_t);\n    }\n    struct Client{\n        string name;\n        string client_id;\n        string client_secret;\n        string project_name;\n    }\n    \n    mapping (address => uint ) public clientIds;\n\n    Client[] public client;\n\n    event newClientRegistered(uint id);\n    event clientUpdateEvent(uint id);\n\n    modifier checkSenderIsRegistered{\n        require(user.isRegistered()==1);\n        _;\n    }\n    function registerClient(string memory _name) public returns(uint) {\n        return addClient(msg.sender, _name);\n    }\n    function addClient(address _wAddr, string memory _name) private returns(uint){\n        uint clientId = clientIds[_wAddr];\n        require(clientId == 0);\n\n        clientIds[_wAddr] = client.length;\n        uint newClientId = client.length++;\n\n        client[newClientId] = Client({\n            name : _name,\n            client_id: \"\",\n            client_secret: \"\",\n            project_name: \"\"\n        });\n        emit newClientRegistered(newClientId);\n\n        return newClientId;\n    }\n    function addClientApp(string memory _pname, string memory _cid, string memory _cscrt) public returns(uint){\n        uint clientId = clientIds[msg.sender];\n        Client storage c = client[clientId];\n        c.project_name = _pname;\n        c.client_id = _cid;\n        c.client_secret = _cscrt;\n\n        emit clientUpdateEvent(clientId);\n\n        return clientId;\n    }\n    function totalClients() public view returns (uint){\n        return client.length - 1;\n      }\n\n    function getClientById(uint _id) public view\n    returns(\n      string memory,\n      string memory,\n      string memory,\n      string memory\n      ){\n        require((_id > 0 ) || (_id <= client.length));\n\n        Client memory i = client[_id];\n\n        return(\n         \n          i.name,\n          i.client_id,\n          i.client_secret,\n          i.project_name);\n      }      \n    function getClientProfile() checkSenderIsRegistered public view\n        returns(\n          string memory,\n          string memory,\n          string memory,\n          string memory\n          ) {\n            uint id = clientIds[msg.sender];\n\n            return getClientById(id);\n          }\n\n}",
  "sourcePath": "C:/Users/Administrator/Desktop/Identity-3.0-master_3/Identity-3.0-master/contracts/.Auth.sol",
  "compiler": {
    "name": "solc",
    "version": "0.5.16+commit.9c3226ce.Emscripten.clang"
  },
  "schemaVersion": "3.3.3",
  "updatedAt": "2021-02-17T12:45:43.502Z",
  "devdoc": {
    "methods": {}
  },
  "userdoc": {
    "methods": {}
  }
}